19:24:45.459989 IP 192.168.86.32 > 45.33.72.129: ICMP echo request, id 3, seq 4, length 64
	0x0000:  7cd9 5c98 ac67 0cdd 241e 2526 0800 4500  |.\..g..$.%&..E.
	0x0010:  0054 6e23 4000 4001 401b c0a8 5620 2d21  .Tn#@.@.@...V.-!
	0x0020:  4881 0800 c715 0003 0004 3dac 985f 0000  H.........=.._..
	0x0030:  0000 9504 0700 0000 0000 1011 1213 1415  ................
	0x0040:  1617 1819 1a1b 1c1d 1e1f 2021 2223 2425  ...........!"#$%
	0x0050:  2627 2829 2a2b 2c2d 2e2f 3031 3233 3435  &'()*+,-./012345
	0x0060:  3637                                     67
19:24:45.480796 IP 45.33.72.129 > 192.168.86.32: ICMP echo reply, id 3, seq 4, length 64
	0x0000:  0cdd 241e 2526 7cd9 5c98 ac67 0800 4500  ..$.%&|.\..g..E.
	0x0010:  0054 b76d 0000 3601 40d1 2d21 4881 c0a8  .T.m..6.@.-!H...
	0x0020:  5620 0000 cf15 0003 0004 3dac 985f 0000  V.........=.._..
	0x0030:  0000 9504 0700 0000 0000 1011 1213 1415  ................
	0x0040:  1617 1819 1a1b 1c1d 1e1f 2021 2223 2425  ...........!"#$%
	0x0050:  2627 2829 2a2b 2c2d 2e2f 3031 3233 3435  &'()*+,-./012345
	0x0060:  3637                                     67
19:24:46.461296 IP 192.168.86.32 > 45.33.72.129: ICMP echo request, id 3, seq 5, length 64
	0x0000:  7cd9 5c98 ac67 0cdd 241e 2526 0800 4500  |.\..g..$.%&..E.
	0x0010:  0054 6ed2 4000 4001 3f6c c0a8 5620 2d21  .Tn.@.@.?l..V.-!
	0x0020:  4881 0800 a00f 0003 0005 3eac 985f 0000  H.........>.._..
	0x0030:  0000 bb09 0700 0000 0000 1011 1213 1415  ................
	0x0040:  1617 1819 1a1b 1c1d 1e1f 2021 2223 2425  ...........!"#$%
	0x0050:  2627 2829 2a2b 2c2d 2e2f 3031 3233 3435  &'()*+,-./012345
	0x0060:  3637                                     67
19:24:46.481455 IP 45.33.72.129 > 192.168.86.32: ICMP echo reply, id 3, seq 5, length 64
	0x0000:  0cdd 241e 2526 7cd9 5c98 ac67 0800 4500  ..$.%&|.\..g..E.
	0x0010:  0054 b7ef 0000 3601 404f 2d21 4881 c0a8  .T....6.@O-!H...
	0x0020:  5620 0000 a80f 0003 0005 3eac 985f 0000  V.........>.._..
	0x0030:  0000 bb09 0700 0000 0000 1011 1213 1415  ................
	0x0040:  1617 1819 1a1b 1c1d 1e1f 2021 2223 2425  ...........!"#$%
	0x0050:  2627 2829 2a2b 2c2d 2e2f 3031 3233 3435  &'()*+,-./012345
	0x0060:  3637                                     67
19:24:47.462965 IP 192.168.86.32 > 45.33.72.129: ICMP echo request, id 3, seq 6, length 64
	0x0000:  7cd9 5c98 ac67 0cdd 241e 2526 0800 4500  |.\..g..$.%&..E.
	0x0010:  0054 6f64 4000 4001 3eda c0a8 5620 2d21  .Tod@.@.>...V.-!
	0x0020:  4881 0800 1b08 0003 0006 3fac 985f 0000  H.........?.._..
	0x0030:  0000 3f10 0700 0000 0000 1011 1213 1415  ..?.............
	0x0040:  1617 1819 1a1b 1c1d 1e1f 2021 2223 2425  ...........!"#$%
	0x0050:  2627 2829 2a2b 2c2d 2e2f 3031 3233 3435  &'()*+,-./012345
	0x0060:  3637                                     67
19:24:47.482079 IP 45.33.72.129 > 192.168.86.32: ICMP echo reply, id 3, seq 6, length 64
	0x0000:  0cdd 241e 2526 7cd9 5c98 ac67 0800 4500  ..$.%&|.\..g..E.
	0x0010:  0054 b80b 0000 3601 4033 2d21 4881 c0a8  .T....6.@3-!H...
	0x0020:  5620 0000 2308 0003 0006 3fac 985f 0000  V...#.....?.._..
	0x0030:  0000 3f10 0700 0000 0000 1011 1213 1415  ..?.............
	0x0040:  1617 1819 1a1b 1c1d 1e1f 2021 2223 2425  ...........!"#$%
	0x0050:  2627 2829 2a2b 2c2d 2e2f 3031 3233 3435  &'()*+,-./012345
	0x0060:  3637                                     67
19:24:48.464525 IP 192.168.86.32 > 45.33.72.129: ICMP echo request, id 3, seq 7, length 64
	0x0000:  7cd9 5c98 ac67 0cdd 241e 2526 0800 4500  |.\..g..$.%&..E.
	0x0010:  0054 7010 4000 4001 3e2e c0a8 5620 2d21  .Tp.@.@.>...V.-!
	0x0020:  4881 0800 fb00 0003 0007 40ac 985f 0000  H.........@.._..
	0x0030:  0000 5e16 0700 0000 0000 1011 1213 1415  ..^.............
	0x0040:  1617 1819 1a1b 1c1d 1e1f 2021 2223 2425  ...........!"#$%
	0x0050:  2627 2829 2a2b 2c2d 2e2f 3031 3233 3435  &'()*+,-./012345
	0x0060:  3637                                     67
19:24:48.483871 IP 45.33.72.129 > 192.168.86.32: ICMP echo reply, id 3, seq 7, length 64
	0x0000:  0cdd 241e 2526 7cd9 5c98 ac67 0800 4500  ..$.%&|.\..g..E.
	0x0010:  0054 b8ff 0000 3601 3f3f 2d21 4881 c0a8  .T....6.??-!H...
	0x0020:  5620 0000 0301 0003 0007 40ac 985f 0000  V.........@.._..
	0x0030:  0000 5e16 0700 0000 0000 1011 1213 1415  ..^.............
	0x0040:  1617 1819 1a1b 1c1d 1e1f 2021 2223 2425  ...........!"#$%
	0x0050:  2627 2829 2a2b 2c2d 2e2f 3031 3233 3435  &'()*+,-./012345
	0x0060:  3637                                     67

